:030000000205F501
:0C05F500787FE4F6D8FD75811F02063CFB
:10084E003173656E736F722E74616F62616F00200B
:10085E002020202020202020202E636F6D00466C4B
:06086E006F773A004C0018
:1008D900040800000000041200000000040C0000DD
:0208E90000000D
:1007EB00E4F580D2A77F05FE1208287F381200039C
:1007FB001208247F381200031208247F38120003DA
:10080B007F381200037F081200037F011200037F61
:09081B00061200037F0C02000329
:05001600C2A6C2A522F4
:05091300D2A6C2A522DE
:05091800C2A6D2A522D9
:100003008F1E1208FC40FB851E8012001602091D7C
:1008EC008F1D1208FC40FB851D8012091802091D82
:05091D00C2A7D2A722D1
:1008B3008F1DED6003431D40431D80120824AF1DAF
:0308C3000200032D
:0A0909008B1C1208B3AF1C0208ECAF
:0507AD007BFFE4FDFFED
:1007B2008F168D178B188A19891AAB18AA19A91ABC
:1007C20012033D6023120824AF160516AB18AA19AE
:1007D200A91A12033DFBAD171209097401251AF576
:0907E2001AE43519F51980D22240
:0D08FC007580FF12091312091DE5803322DB
:1006D3001208741207EB7A08794E1207AD7BFF7A82
:1006E30008795D7D01E4FF1207B27F2C7E011208B9
:1006F300287F011200037F011200037A08796C122C
:1007030007AD7BFF7A087972E4FD7F0C1207B2E52F
:0D07130011451070FA1207201204BD80F28B
:10072000E4FBFA79B07840AF0BAE0AAD09AC081221
:10073000021FE4FBFA7970784212021F8F158E14A3
:100740008D138C12AF0FAE0EAD0DAC0CAB15AA1401
:10075000A913A8121200258F0F8E0E8D0D8C0CE49C
:09076000F50BF50AF509F5082274
:1004BD00E4FFFE7DC87C42AB0FAA0EA90DA80C125D
:1004CD0001161202BCEE3395E0FDFC7BA07A867915
:1004DD00017800120769EF2430F516E4FFFE7DC8A0
:1004ED007C42AB0FAA0EA90DA80C1201161202BC6C
:1004FD00EE3395E0FDFC7BA07A867901780012073A
:10050D0069AC00AD01AE02AF03E47B107A27F9F8B8
:10051D00120769EF2430F517E4FFFE7DC87C42AB6E
:10052D000FAA0EA90DA80C1201161202BCAB07AA38
:10053D00067C277D101203567E037FE8CFCDCFCEEC
:10054D00CCCE120356EF2430F5187C037DE8AF03B3
:10055D00AE021203567E007F64CFCDCFCECCCE122D
:10056D000356EF2430F519E4FFFE7DC87C42AB0F36
:10057D00AA0EA90DA80C1201161202BCAB07AA06F1
:10058D007C007D641203567E007F0ACFCDCFCECC8A
:10059D00CE120356EF2430F51A7C007D0AAF03AE60
:1005AD0002120356ED2430F51BAB16E4FD7F051248
:1005BD000909AB17E4FD7F06120909AB18E4FD7FAD
:1005CD0007120909AB19E4FD7F081209097B2EE416
:1005DD00FD7F09120909AB1AE4FD7F0A120909AB67
:0805ED001BE4FD7F0B0209096C
:040824007F057E00CE
:10082800E4F51EF51F8E1E8F1FD3E51F9400E51EED
:10083800940040117FFF7E001208C6E51F151F7047
:05084800E8151E80E42C
:01084D002288
:1008C600E4FDFCC3ED9FEC9E5008000DBD00010C3D
:0208D60080F1AF
:0108D80022FD
:10087400D2AFD2A8D288D2B8D2AAD28AD2BA758933
:1008840011C2A9D2ABC28CD28E758D4CE4F58B22E9
:0300130002068161
:10068100C0E0C0F0C083C082C0D075D000C000C03F
:1006910001C002C003C004C005C006C007AF0BAE55
:1006A1000AAD09AC08E4FBFA7980783F1200258F86
:1006B1000B8E0A8D098C08D007D006D005D004D046
:1006C10003D002D001D000D0D0D082D083D0F0D0DE
:0206D100E03215
:03001B0002089444
:10089400C0E0D28E758D4C758B000511E511700288
:0F08A4000510641445107004F510F511D0E03202
:10001E00020328E86480F8E933E83360110460F0E5
:10002E00ED33EC337009E8FCE9FDEAFEEBFF220448
:10003E0060DED3EB9FEA9EE99DE8C2E78CF0C2F743
:10004E0095F0400CE8CCF8E9CDF9EACEFAEBCFFB0F
:10005E001202F385D0F05804700320D5B3E8047073
:10006E00075002B2D502033292D5EC0460F7E4CC0D
:10007E00C0E0C398F8603B94186008400DD0E0FBD8
:10008E0002030AE4FBFAC9FC8028E830E406E4C95E
:10009E00FBE4CAFCE830E305E4C9CACBFCE854072C
:1000AE006010F8C3E913F9EA13FAEB13FBEC13FC37
:1000BE00D8F130F52FC3E49CFCEF9BFFEE9AFEEDDA
:1000CE0099FDD0E0FBEF4E4D4C701222DB03020384
:1000DE002FEC2CFCEF33FFEE33FEED33FDED30E76E
:1000EE00EB02030AEF2BFFEE3AFEED39FDD0E0FBFB
:1000FE0050130BBB0003020332ED13FDEE13FEEFA4
:08010E0013FFEC13FC02030ACD
:10011600EC4D6011E8497017ED33EC3304600DE4E3
:10012600FCFFFEFD22E933E8330470F802032812CF
:1001360002F358046009E4CC2481500628500902D1
:10014600033228400302032FC0E0EB4A7044B98013
:1001560006D0E0FB02031EEF4E701CBD8008EBFFCD
:10016600EAFEE9FD80EBE98DF0A4FEE5F00201FF71
:10017600E9CDF9EAFEEBFFEF89F0A4FCE5F0CE89C4
:10018600F0A42EFFE435F0CD89F0A42DFEE435F081
:100196008067EF4E7005BD80D780C3EF8BF0A4ACAF
:1001A600F0EE8BF0A42CFCE435F0F8EF8AF0A42CEA
:1001B600E5F038FCE433CB8DF0A42CFCE5F03BF8FD
:1001C600EE8AF0A42CFCE5F038F8E433CF89F0A4ED
:1001D6002CFCE5F038CF3400CE89F0A42FFFE5F0F3
:1001E6003EFEE433C98DF0A42EFEE5F039CD8AF04B
:1001F600A42FFFE5F03EFEE43DFD33D0E0FB5007C3
:100206000BBB000F020332EC2CFCEF33FFEE33FE88
:06021600ED33FD02030AB6
:10021C00020332EC5D046005E85904700302032804
:10022C001202F3580460F6EC4860F2EC7004FDFE28
:10023C00FF22C860DB2481C85009C39860025006B5
:10024C0002032F9850CAF582E9294B4A7005AB82FC
:10025C0002031E75F0007C1A7880C3EF9BEE9AEDBA
:10026C0099400DC3EF9BFFEE9AFEED99FDE842F02D
:10027C00DC23ACF0D0E0FFD0E0FED0E0FDAB822080
:10028C00E7101BEB60BAEC2CFCEF33FFEE33FEED0A
:10029C0033FD02030AE803F830E705C0F075F000FF
:1002AC00EF2FFFEE33FEED33FD40B830E7C280AAEE
:1002BC00EDD2E7CD33EC3392D524814006E4FFFE3A
:1002CC00FDFC22FCE4CFCECDCC24E0501174FF8099
:1002DC00EDC3CC13CCCD13CDCE13CECF13CF047036
:0702EC00F030D5DE02038CA7
:1002F300E9D2E7C933E833F892D5EDD2E7CD33EC51
:0703030033FC5002B2D522C9
:10030A00EC30E7100FBF000C0EBE00080DBD000454
:10031A000BEB6014A2D5EB13FCED92E7FD2274FF00
:10032A00FCFDFEFF22E480F8A2D574FF13FC7D8059
:03033A00E480EF6D
:100601000206D3E493A3F8E493A34003F68001F236
:1006110008DFF48029E493A3F85407240CC8C333FA
:10062100C4540F4420C8834004F456800146F6DFC9
:10063100E4800B01020408102040809008D9E47E78
:10064100019360BCA3FF543F30E509541FFEE493BE
:10065100A360010ECF54C025E060A840B8E493A385
:10066100FAE493A3F8E493A3C8C582C8CAC583CAB0
:10067100F0A3C8C582C8CAC583CADFE9DEE780BE68
:0108EB00000C
:10033D00BB010689828A83E0225002E722BBFE02BE
:09034D00E32289828A83E49322F1
:10035600C2D5EC30E709B2D5E4C39DFDE49CFCEEC2
:1003660030E715B2D5E4C39FFFE49EFE12039AC39D
:10037600E49DFDE49CFC800312039A30D507C3E498
:060386009FFFE49EFE2231
:10076900C2D5E830E70FB2D5E4C39BFBE49AFAE4BB
:1007790099F9E498F8EC30E717B2D512079F1204FB
:100789002BE4C39BFBE49AFAE499F9E498F8800313
:1007990012042B30D50DE4C39FFFE49EFEE49DFDBA
:0407A900E49CFC22AE
:0E038C00C3E49FFFE49EFEE49DFDE49CFC2282
:10039A00BC000BBE0029EF8DF084FFADF022E4CC47
:1003AA00F875F008EF2FFFEE33FEEC33FCEE9DEC10
:1003BA00984005FCEE9DFE0FD5F0E9E4CEFD22ED56
:1003CA00F8F5F0EE8420D21CFEADF075F008EF2FA0
:1003DA00FFED33FD4007985006D5F0F222C398FD91
:0503EA000FD5F0EA222E
:1003EF0075F008758200EF2FFFEE33FECD33CDCCC5
:1003FF0033CCC58233C5829BED9AEC99E582984048
:10040F000CF582EE9BFEED9AFDEC99FC0FD5F0D624
:10041F00E4CEFBE4CDFAE4CCF9A88222B800C1B94E
:10042F000059BA002DEC8BF084CFCECDFCE5F0CB8C
:10043F00F97818EF2FFFEE33FEED33FDEC33FCEBC5
:10044F0033FB10D703994004EB99FB0FD8E5E4F980
:10045F00FA227818EF2FFFEE33FEED33FDEC33FC6D
:10046F00C933C910D7059BE99A4007EC9BFCE99A61
:10047F00F90FD8E0E4C9FAE4CCFB2275F010EF2FA6
:10048F00FFEE33FEED33FDCC33CCC833C810D707A6
:10049F009BEC9AE899400AED9BFDEC9AFCE899F8E1
:0E04AF000FD5F0DAE4CDFBE4CCFAE4C8F92274
:00000001FF
